{
  "_format": "hh-sol-artifact-1",
  "contractName": "BuildingTender",
  "sourceName": "contracts/Tender.sol",
  "abi": [
    {
      "inputs": [
        {
          "internalType": "uint256",
          "name": "_biddingTime",
          "type": "uint256"
        },
        {
          "internalType": "string",
          "name": "_description",
          "type": "string"
        },
        {
          "internalType": "string",
          "name": "_secret",
          "type": "string"
        },
        {
          "internalType": "uint256",
          "name": "_initialPrice",
          "type": "uint256"
        }
      ],
      "stateMutability": "nonpayable",
      "type": "constructor"
    },
    {
      "inputs": [
        {
          "internalType": "uint256",
          "name": "currentLowest",
          "type": "uint256"
        }
      ],
      "name": "BidTooHigh",
      "type": "error"
    },
    {
      "inputs": [],
      "name": "NotManager",
      "type": "error"
    },
    {
      "inputs": [],
      "name": "TenderAlreadyEnded",
      "type": "error"
    },
    {
      "inputs": [],
      "name": "TenderEndAlreadyCalled",
      "type": "error"
    },
    {
      "inputs": [],
      "name": "TenderNotEnded",
      "type": "error"
    },
    {
      "anonymous": false,
      "inputs": [
        {
          "indexed": false,
          "internalType": "address",
          "name": "bidder",
          "type": "address"
        },
        {
          "indexed": false,
          "internalType": "uint256",
          "name": "amount",
          "type": "uint256"
        }
      ],
      "name": "LowestBidDecreased",
      "type": "event"
    },
    {
      "anonymous": false,
      "inputs": [
        {
          "indexed": false,
          "internalType": "address",
          "name": "winner",
          "type": "address"
        },
        {
          "indexed": false,
          "internalType": "uint256",
          "name": "amount",
          "type": "uint256"
        }
      ],
      "name": "TenderEnded",
      "type": "event"
    },
    {
      "inputs": [
        {
          "internalType": "uint256",
          "name": "proposedPrice",
          "type": "uint256"
        }
      ],
      "name": "applyForJob",
      "outputs": [],
      "stateMutability": "payable",
      "type": "function"
    },
    {
      "inputs": [],
      "name": "ended",
      "outputs": [
        {
          "internalType": "bool",
          "name": "",
          "type": "bool"
        }
      ],
      "stateMutability": "view",
      "type": "function"
    },
    {
      "inputs": [],
      "name": "getInvestorContact",
      "outputs": [
        {
          "internalType": "string",
          "name": "",
          "type": "string"
        }
      ],
      "stateMutability": "view",
      "type": "function"
    },
    {
      "inputs": [],
      "name": "jobDescription",
      "outputs": [
        {
          "internalType": "string",
          "name": "",
          "type": "string"
        }
      ],
      "stateMutability": "view",
      "type": "function"
    },
    {
      "inputs": [],
      "name": "lowestBid",
      "outputs": [
        {
          "internalType": "uint256",
          "name": "",
          "type": "uint256"
        }
      ],
      "stateMutability": "view",
      "type": "function"
    },
    {
      "inputs": [],
      "name": "lowestBidder",
      "outputs": [
        {
          "internalType": "address",
          "name": "",
          "type": "address"
        }
      ],
      "stateMutability": "view",
      "type": "function"
    },
    {
      "inputs": [],
      "name": "manager",
      "outputs": [
        {
          "internalType": "address",
          "name": "",
          "type": "address"
        }
      ],
      "stateMutability": "view",
      "type": "function"
    },
    {
      "inputs": [],
      "name": "tenderEnd",
      "outputs": [],
      "stateMutability": "nonpayable",
      "type": "function"
    },
    {
      "inputs": [],
      "name": "tenderEndTime",
      "outputs": [
        {
          "internalType": "uint256",
          "name": "",
          "type": "uint256"
        }
      ],
      "stateMutability": "view",
      "type": "function"
    },
    {
      "inputs": [],
      "name": "withdrawDeposit",
      "outputs": [
        {
          "internalType": "bool",
          "name": "",
          "type": "bool"
        }
      ],
      "stateMutability": "nonpayable",
      "type": "function"
    }
  ],
  "bytecode": "0x608060405234801561001057600080fd5b5060405161138a38038061138a8339818101604052810190610032919061025f565b336000806101000a81548173ffffffffffffffffffffffffffffffffffffffff021916908373ffffffffffffffffffffffffffffffffffffffff16021790555082600190816100819190610515565b5081600290816100919190610515565b50834261009e9190610616565b600381905550806004819055505050505061064a565b6000604051905090565b600080fd5b600080fd5b6000819050919050565b6100db816100c8565b81146100e657600080fd5b50565b6000815190506100f8816100d2565b92915050565b600080fd5b600080fd5b6000601f19601f8301169050919050565b7f4e487b7100000000000000000000000000000000000000000000000000000000600052604160045260246000fd5b61015182610108565b810181811067ffffffffffffffff821117156101705761016f610119565b5b80604052505050565b60006101836100b4565b905061018f8282610148565b919050565b600067ffffffffffffffff8211156101af576101ae610119565b5b6101b882610108565b9050602081019050919050565b60005b838110156101e35780820151818401526020810190506101c8565b60008484015250505050565b60006102026101fd84610194565b610179565b90508281526020810184848401111561021e5761021d610103565b5b6102298482856101c5565b509392505050565b600082601f830112610246576102456100fe565b5b81516102568482602086016101ef565b91505092915050565b60008060008060808587031215610279576102786100be565b5b6000610287878288016100e9565b945050602085015167ffffffffffffffff8111156102a8576102a76100c3565b5b6102b487828801610231565b935050604085015167ffffffffffffffff8111156102d5576102d46100c3565b5b6102e187828801610231565b92505060606102f2878288016100e9565b91505092959194509250565b600081519050919050565b7f4e487b7100000000000000000000000000000000000000000000000000000000600052602260045260246000fd5b6000600282049050600182168061035057607f821691505b60208210810361036357610362610309565b5b50919050565b60008190508160005260206000209050919050565b60006020601f8301049050919050565b600082821b905092915050565b6000600883026103cb7fffffffffffffffffffffffffffffffffffffffffffffffffffffffffffffffff8261038e565b6103d5868361038e565b95508019841693508086168417925050509392505050565b6000819050919050565b600061041261040d610408846100c8565b6103ed565b6100c8565b9050919050565b6000819050919050565b61042c836103f7565b61044061043882610419565b84845461039b565b825550505050565b600090565b610455610448565b610460818484610423565b505050565b5b818110156104845761047960008261044d565b600181019050610466565b5050565b601f8211156104c95761049a81610369565b6104a38461037e565b810160208510156104b2578190505b6104c66104be8561037e565b830182610465565b50505b505050565b600082821c905092915050565b60006104ec600019846008026104ce565b1980831691505092915050565b600061050583836104db565b9150826002028217905092915050565b61051e826102fe565b67ffffffffffffffff81111561053757610536610119565b5b6105418254610338565b61054c828285610488565b600060209050601f83116001811461057f576000841561056d578287015190505b61057785826104f9565b8655506105df565b601f19841661058d86610369565b60005b828110156105b557848901518255600182019150602085019450602081019050610590565b868310156105d257848901516105ce601f8916826104db565b8355505b6001600288020188555050505b505050505050565b7f4e487b7100000000000000000000000000000000000000000000000000000000600052601160045260246000fd5b6000610621826100c8565b915061062c836100c8565b9250828201905080821115610644576106436105e7565b5b92915050565b610d31806106596000396000f3fe6080604052600436106100915760003560e01c80634a79d966116100595780634a79d9661461016d578063b6f3d25614610184578063d1ecc66b146101af578063e0c94ae5146101da578063e1349333146101f657610091565b80630e99fd9f14610096578063117df088146100c157806312fa6feb146100ec5780633e44a6af14610117578063481c6a7514610142575b600080fd5b3480156100a257600080fd5b506100ab610221565b6040516100b89190610934565b60405180910390f35b3480156100cd57600080fd5b506100d6610227565b6040516100e3919061096a565b60405180910390f35b3480156100f857600080fd5b50610101610385565b60405161010e919061096a565b60405180910390f35b34801561012357600080fd5b5061012c610398565b6040516101399190610a15565b60405180910390f35b34801561014e57600080fd5b50610157610509565b6040516101649190610a78565b60405180910390f35b34801561017957600080fd5b5061018261052d565b005b34801561019057600080fd5b50610199610673565b6040516101a69190610934565b60405180910390f35b3480156101bb57600080fd5b506101c4610679565b6040516101d19190610a15565b60405180910390f35b6101f460048036038101906101ef9190610ac4565b610707565b005b34801561020257600080fd5b5061020b6108f5565b6040516102189190610a78565b60405180910390f35b60035481565b600080600660003373ffffffffffffffffffffffffffffffffffffffff1673ffffffffffffffffffffffffffffffffffffffff168152602001908152602001600020549050600081111561037c576000600660003373ffffffffffffffffffffffffffffffffffffffff1673ffffffffffffffffffffffffffffffffffffffff1681526020019081526020016000208190555060003373ffffffffffffffffffffffffffffffffffffffff16826040516102e090610b22565b60006040518083038185875af1925050503d806000811461031d576040519150601f19603f3d011682016040523d82523d6000602084013e610322565b606091505b505090508061037a5781600660003373ffffffffffffffffffffffffffffffffffffffff1673ffffffffffffffffffffffffffffffffffffffff16815260200190815260200160002081905550600092505050610382565b505b60019150505b90565b600760009054906101000a900460ff1681565b6060600760009054906101000a900460ff166103e9576040517f08c379a00000000000000000000000000000000000000000000000000000000081526004016103e090610b83565b60405180910390fd5b600560009054906101000a900473ffffffffffffffffffffffffffffffffffffffff1673ffffffffffffffffffffffffffffffffffffffff163373ffffffffffffffffffffffffffffffffffffffff1614610479576040517f08c379a000000000000000000000000000000000000000000000000000000000815260040161047090610bef565b60405180910390fd5b6002805461048690610c3e565b80601f01602080910402602001604051908101604052809291908181526020018280546104b290610c3e565b80156104ff5780601f106104d4576101008083540402835291602001916104ff565b820191906000526020600020905b8154815290600101906020018083116104e257829003601f168201915b5050505050905090565b60008054906101000a900473ffffffffffffffffffffffffffffffffffffffff1681565b60008054906101000a900473ffffffffffffffffffffffffffffffffffffffff1673ffffffffffffffffffffffffffffffffffffffff163373ffffffffffffffffffffffffffffffffffffffff16146105b2576040517fc0fc8a8a00000000000000000000000000000000000000000000000000000000815260040160405180910390fd5b600760009054906101000a900460ff16156105f9576040517fa05e174400000000000000000000000000000000000000000000000000000000815260040160405180910390fd5b6001600760006101000a81548160ff0219169083151502179055507f3ff57b4a323c007e203dfa9a295763800e6574dfd68b44f44ce83df6612c00b1600560009054906101000a900473ffffffffffffffffffffffffffffffffffffffff16600454604051610669929190610c6f565b60405180910390a1565b60045481565b6001805461068690610c3e565b80601f01602080910402602001604051908101604052809291908181526020018280546106b290610c3e565b80156106ff5780601f106106d4576101008083540402835291602001916106ff565b820191906000526020600020905b8154815290600101906020018083116106e257829003601f168201915b505050505081565b6003544211806107235750600760009054906101000a900460ff165b1561075a576040517fc09eb1be00000000000000000000000000000000000000000000000000000000815260040160405180910390fd5b60045481106107a2576004546040517f265587be0000000000000000000000000000000000000000000000000000000081526004016107999190610934565b60405180910390fd5b600073ffffffffffffffffffffffffffffffffffffffff16600560009054906101000a900473ffffffffffffffffffffffffffffffffffffffff1673ffffffffffffffffffffffffffffffffffffffff1614610871573460066000600560009054906101000a900473ffffffffffffffffffffffffffffffffffffffff1673ffffffffffffffffffffffffffffffffffffffff1673ffffffffffffffffffffffffffffffffffffffff16815260200190815260200160002060008282546108699190610cc7565b925050819055505b33600560006101000a81548173ffffffffffffffffffffffffffffffffffffffff021916908373ffffffffffffffffffffffffffffffffffffffff160217905550806004819055507f07933099d435b08bae05bf8f891a9764e654440bc381830d3fc339342066946d33826040516108ea929190610c6f565b60405180910390a150565b600560009054906101000a900473ffffffffffffffffffffffffffffffffffffffff1681565b6000819050919050565b61092e8161091b565b82525050565b60006020820190506109496000830184610925565b92915050565b60008115159050919050565b6109648161094f565b82525050565b600060208201905061097f600083018461095b565b92915050565b600081519050919050565b600082825260208201905092915050565b60005b838110156109bf5780820151818401526020810190506109a4565b60008484015250505050565b6000601f19601f8301169050919050565b60006109e782610985565b6109f18185610990565b9350610a018185602086016109a1565b610a0a816109cb565b840191505092915050565b60006020820190508181036000830152610a2f81846109dc565b905092915050565b600073ffffffffffffffffffffffffffffffffffffffff82169050919050565b6000610a6282610a37565b9050919050565b610a7281610a57565b82525050565b6000602082019050610a8d6000830184610a69565b92915050565b600080fd5b610aa18161091b565b8114610aac57600080fd5b50565b600081359050610abe81610a98565b92915050565b600060208284031215610ada57610ad9610a93565b5b6000610ae884828501610aaf565b91505092915050565b600081905092915050565b50565b6000610b0c600083610af1565b9150610b1782610afc565b600082019050919050565b6000610b2d82610aff565b9150819050919050565b7f54656e646572206a6f73207576656b207472616a652e00000000000000000000600082015250565b6000610b6d601683610990565b9150610b7882610b37565b602082019050919050565b60006020820190508181036000830152610b9c81610b60565b9050919050565b7f4e6973746520706f6265646e696b2074656e646572612e000000000000000000600082015250565b6000610bd9601783610990565b9150610be482610ba3565b602082019050919050565b60006020820190508181036000830152610c0881610bcc565b9050919050565b7f4e487b7100000000000000000000000000000000000000000000000000000000600052602260045260246000fd5b60006002820490506001821680610c5657607f821691505b602082108103610c6957610c68610c0f565b5b50919050565b6000604082019050610c846000830185610a69565b610c916020830184610925565b9392505050565b7f4e487b7100000000000000000000000000000000000000000000000000000000600052601160045260246000fd5b6000610cd28261091b565b9150610cdd8361091b565b9250828201905080821115610cf557610cf4610c98565b5b9291505056fea2646970667358221220b2859d4ea4aa74c06b414003bb530bf45f49baf404921712de393d022dcc9a1364736f6c634300081c0033",
  "linkReferences": {},
  "deployedLinkReferences": {}
}