{
  "_format": "hh-sol-artifact-1",
  "contractName": "BuildingTender",
  "sourceName": "contracts/Tender.sol",
  "abi": [
    {
      "inputs": [
        {
          "internalType": "uint256",
          "name": "_biddingTime",
          "type": "uint256"
        },
        {
          "internalType": "string",
          "name": "_description",
          "type": "string"
        },
        {
          "internalType": "string",
          "name": "_secret",
          "type": "string"
        },
        {
          "internalType": "uint256",
          "name": "_initialPrice",
          "type": "uint256"
        }
      ],
      "stateMutability": "nonpayable",
      "type": "constructor"
    },
    {
      "inputs": [
        {
          "internalType": "uint256",
          "name": "currentLowest",
          "type": "uint256"
        }
      ],
      "name": "BidTooHigh",
      "type": "error"
    },
    {
      "inputs": [],
      "name": "IncorrectDepositValue",
      "type": "error"
    },
    {
      "inputs": [],
      "name": "NotManager",
      "type": "error"
    },
    {
      "inputs": [],
      "name": "NotTheWinner",
      "type": "error"
    },
    {
      "inputs": [],
      "name": "TenderAlreadyEnded",
      "type": "error"
    },
    {
      "inputs": [],
      "name": "TenderEndAlreadyCalled",
      "type": "error"
    },
    {
      "inputs": [],
      "name": "TenderNotEndedYet",
      "type": "error"
    },
    {
      "anonymous": false,
      "inputs": [
        {
          "indexed": true,
          "internalType": "address",
          "name": "bidder",
          "type": "address"
        },
        {
          "indexed": false,
          "internalType": "uint256",
          "name": "amount",
          "type": "uint256"
        }
      ],
      "name": "LowestBidDecreased",
      "type": "event"
    },
    {
      "anonymous": false,
      "inputs": [
        {
          "indexed": false,
          "internalType": "address",
          "name": "winner",
          "type": "address"
        },
        {
          "indexed": false,
          "internalType": "uint256",
          "name": "amount",
          "type": "uint256"
        }
      ],
      "name": "TenderEnded",
      "type": "event"
    },
    {
      "inputs": [],
      "name": "DEPOSIT_AMOUNT",
      "outputs": [
        {
          "internalType": "uint256",
          "name": "",
          "type": "uint256"
        }
      ],
      "stateMutability": "view",
      "type": "function"
    },
    {
      "inputs": [
        {
          "internalType": "uint256",
          "name": "proposedPrice",
          "type": "uint256"
        }
      ],
      "name": "applyForJob",
      "outputs": [],
      "stateMutability": "payable",
      "type": "function"
    },
    {
      "inputs": [],
      "name": "ended",
      "outputs": [
        {
          "internalType": "bool",
          "name": "",
          "type": "bool"
        }
      ],
      "stateMutability": "view",
      "type": "function"
    },
    {
      "inputs": [],
      "name": "getInvestorContact",
      "outputs": [
        {
          "internalType": "string",
          "name": "",
          "type": "string"
        }
      ],
      "stateMutability": "view",
      "type": "function"
    },
    {
      "inputs": [],
      "name": "jobDescription",
      "outputs": [
        {
          "internalType": "string",
          "name": "",
          "type": "string"
        }
      ],
      "stateMutability": "view",
      "type": "function"
    },
    {
      "inputs": [],
      "name": "lowestBid",
      "outputs": [
        {
          "internalType": "uint256",
          "name": "",
          "type": "uint256"
        }
      ],
      "stateMutability": "view",
      "type": "function"
    },
    {
      "inputs": [],
      "name": "lowestBidder",
      "outputs": [
        {
          "internalType": "address",
          "name": "",
          "type": "address"
        }
      ],
      "stateMutability": "view",
      "type": "function"
    },
    {
      "inputs": [],
      "name": "manager",
      "outputs": [
        {
          "internalType": "address",
          "name": "",
          "type": "address"
        }
      ],
      "stateMutability": "view",
      "type": "function"
    },
    {
      "inputs": [],
      "name": "tenderEnd",
      "outputs": [],
      "stateMutability": "nonpayable",
      "type": "function"
    },
    {
      "inputs": [],
      "name": "tenderEndTime",
      "outputs": [
        {
          "internalType": "uint256",
          "name": "",
          "type": "uint256"
        }
      ],
      "stateMutability": "view",
      "type": "function"
    },
    {
      "inputs": [],
      "name": "withdrawDeposit",
      "outputs": [
        {
          "internalType": "bool",
          "name": "",
          "type": "bool"
        }
      ],
      "stateMutability": "nonpayable",
      "type": "function"
    }
  ],
  "bytecode": "0x608060405234801561001057600080fd5b506040516113793803806113798339818101604052810190610032919061025f565b336000806101000a81548173ffffffffffffffffffffffffffffffffffffffff021916908373ffffffffffffffffffffffffffffffffffffffff16021790555082600190816100819190610515565b5081600290816100919190610515565b50834261009e9190610616565b600381905550806004819055505050505061064a565b6000604051905090565b600080fd5b600080fd5b6000819050919050565b6100db816100c8565b81146100e657600080fd5b50565b6000815190506100f8816100d2565b92915050565b600080fd5b600080fd5b6000601f19601f8301169050919050565b7f4e487b7100000000000000000000000000000000000000000000000000000000600052604160045260246000fd5b61015182610108565b810181811067ffffffffffffffff821117156101705761016f610119565b5b80604052505050565b60006101836100b4565b905061018f8282610148565b919050565b600067ffffffffffffffff8211156101af576101ae610119565b5b6101b882610108565b9050602081019050919050565b60005b838110156101e35780820151818401526020810190506101c8565b60008484015250505050565b60006102026101fd84610194565b610179565b90508281526020810184848401111561021e5761021d610103565b5b6102298482856101c5565b509392505050565b600082601f830112610246576102456100fe565b5b81516102568482602086016101ef565b91505092915050565b60008060008060808587031215610279576102786100be565b5b6000610287878288016100e9565b945050602085015167ffffffffffffffff8111156102a8576102a76100c3565b5b6102b487828801610231565b935050604085015167ffffffffffffffff8111156102d5576102d46100c3565b5b6102e187828801610231565b92505060606102f2878288016100e9565b91505092959194509250565b600081519050919050565b7f4e487b7100000000000000000000000000000000000000000000000000000000600052602260045260246000fd5b6000600282049050600182168061035057607f821691505b60208210810361036357610362610309565b5b50919050565b60008190508160005260206000209050919050565b60006020601f8301049050919050565b600082821b905092915050565b6000600883026103cb7fffffffffffffffffffffffffffffffffffffffffffffffffffffffffffffffff8261038e565b6103d5868361038e565b95508019841693508086168417925050509392505050565b6000819050919050565b600061041261040d610408846100c8565b6103ed565b6100c8565b9050919050565b6000819050919050565b61042c836103f7565b61044061043882610419565b84845461039b565b825550505050565b600090565b610455610448565b610460818484610423565b505050565b5b818110156104845761047960008261044d565b600181019050610466565b5050565b601f8211156104c95761049a81610369565b6104a38461037e565b810160208510156104b2578190505b6104c66104be8561037e565b830182610465565b50505b505050565b600082821c905092915050565b60006104ec600019846008026104ce565b1980831691505092915050565b600061050583836104db565b9150826002028217905092915050565b61051e826102fe565b67ffffffffffffffff81111561053757610536610119565b5b6105418254610338565b61054c828285610488565b600060209050601f83116001811461057f576000841561056d578287015190505b61057785826104f9565b8655506105df565b601f19841661058d86610369565b60005b828110156105b557848901518255600182019150602085019450602081019050610590565b868310156105d257848901516105ce601f8916826104db565b8355505b6001600288020188555050505b505050505050565b7f4e487b7100000000000000000000000000000000000000000000000000000000600052601160045260246000fd5b6000610621826100c8565b915061062c836100c8565b9250828201905080821115610644576106436105e7565b5b92915050565b610d20806106596000396000f3fe60806040526004361061009c5760003560e01c80634a79d966116100645780634a79d96614610178578063b6f3d2561461018f578063d1ecc66b146101ba578063e0c94ae5146101e5578063e134933314610201578063ec6925a71461022c5761009c565b80630e99fd9f146100a1578063117df088146100cc57806312fa6feb146100f75780633e44a6af14610122578063481c6a751461014d575b600080fd5b3480156100ad57600080fd5b506100b6610257565b6040516100c391906109fb565b60405180910390f35b3480156100d857600080fd5b506100e161025d565b6040516100ee9190610a31565b60405180910390f35b34801561010357600080fd5b5061010c6103bb565b6040516101199190610a31565b60405180910390f35b34801561012e57600080fd5b506101376103ce565b6040516101449190610adc565b60405180910390f35b34801561015957600080fd5b5061016261052d565b60405161016f9190610b3f565b60405180910390f35b34801561018457600080fd5b5061018d610551565b005b34801561019b57600080fd5b506101a46106d3565b6040516101b191906109fb565b60405180910390f35b3480156101c657600080fd5b506101cf6106d9565b6040516101dc9190610adc565b60405180910390f35b6101ff60048036038101906101fa9190610b8b565b610767565b005b34801561020d57600080fd5b506102166109b1565b6040516102239190610b3f565b60405180910390f35b34801561023857600080fd5b506102416109d7565b60405161024e91906109fb565b60405180910390f35b60035481565b600080600660003373ffffffffffffffffffffffffffffffffffffffff1673ffffffffffffffffffffffffffffffffffffffff16815260200190815260200160002054905060008111156103b2576000600660003373ffffffffffffffffffffffffffffffffffffffff1673ffffffffffffffffffffffffffffffffffffffff1681526020019081526020016000208190555060003373ffffffffffffffffffffffffffffffffffffffff168260405161031690610be9565b60006040518083038185875af1925050503d8060008114610353576040519150601f19603f3d011682016040523d82523d6000602084013e610358565b606091505b50509050806103b05781600660003373ffffffffffffffffffffffffffffffffffffffff1673ffffffffffffffffffffffffffffffffffffffff168152602001908152602001600020819055506000925050506103b8565b505b60019150505b90565b600760009054906101000a900460ff1681565b6060600760009054906101000a900460ff16610416576040517fc2ef873100000000000000000000000000000000000000000000000000000000815260040160405180910390fd5b600560009054906101000a900473ffffffffffffffffffffffffffffffffffffffff1673ffffffffffffffffffffffffffffffffffffffff163373ffffffffffffffffffffffffffffffffffffffff161461049d576040517fa859eb7e00000000000000000000000000000000000000000000000000000000815260040160405180910390fd5b600280546104aa90610c2d565b80601f01602080910402602001604051908101604052809291908181526020018280546104d690610c2d565b80156105235780601f106104f857610100808354040283529160200191610523565b820191906000526020600020905b81548152906001019060200180831161050657829003601f168201915b5050505050905090565b60008054906101000a900473ffffffffffffffffffffffffffffffffffffffff1681565b60008054906101000a900473ffffffffffffffffffffffffffffffffffffffff1673ffffffffffffffffffffffffffffffffffffffff163373ffffffffffffffffffffffffffffffffffffffff16146105d6576040517fc0fc8a8a00000000000000000000000000000000000000000000000000000000815260040160405180910390fd5b600354421015610612576040517fc2ef873100000000000000000000000000000000000000000000000000000000815260040160405180910390fd5b600760009054906101000a900460ff1615610659576040517fa05e174400000000000000000000000000000000000000000000000000000000815260040160405180910390fd5b6001600760006101000a81548160ff0219169083151502179055507f3ff57b4a323c007e203dfa9a295763800e6574dfd68b44f44ce83df6612c00b1600560009054906101000a900473ffffffffffffffffffffffffffffffffffffffff166004546040516106c9929190610c5e565b60405180910390a1565b60045481565b600180546106e690610c2d565b80601f016020809104026020016040519081016040528092919081815260200182805461071290610c2d565b801561075f5780601f106107345761010080835404028352916020019161075f565b820191906000526020600020905b81548152906001019060200180831161074257829003601f168201915b505050505081565b6003544211806107835750600760009054906101000a900460ff165b156107ba576040517fc09eb1be00000000000000000000000000000000000000000000000000000000815260040160405180910390fd5b66b1a2bc2ec5000034146107fa576040517f5a2bee6c00000000000000000000000000000000000000000000000000000000815260040160405180910390fd5b6004548110610842576004546040517f265587be00000000000000000000000000000000000000000000000000000000815260040161083991906109fb565b60405180910390fd5b600073ffffffffffffffffffffffffffffffffffffffff16600560009054906101000a900473ffffffffffffffffffffffffffffffffffffffff1673ffffffffffffffffffffffffffffffffffffffff16146109185766b1a2bc2ec5000060066000600560009054906101000a900473ffffffffffffffffffffffffffffffffffffffff1673ffffffffffffffffffffffffffffffffffffffff1673ffffffffffffffffffffffffffffffffffffffff16815260200190815260200160002060008282546109109190610cb6565b925050819055505b33600560006101000a81548173ffffffffffffffffffffffffffffffffffffffff021916908373ffffffffffffffffffffffffffffffffffffffff160217905550806004819055503373ffffffffffffffffffffffffffffffffffffffff167f07933099d435b08bae05bf8f891a9764e654440bc381830d3fc339342066946d826040516109a691906109fb565b60405180910390a250565b600560009054906101000a900473ffffffffffffffffffffffffffffffffffffffff1681565b66b1a2bc2ec5000081565b6000819050919050565b6109f5816109e2565b82525050565b6000602082019050610a1060008301846109ec565b92915050565b60008115159050919050565b610a2b81610a16565b82525050565b6000602082019050610a466000830184610a22565b92915050565b600081519050919050565b600082825260208201905092915050565b60005b83811015610a86578082015181840152602081019050610a6b565b60008484015250505050565b6000601f19601f8301169050919050565b6000610aae82610a4c565b610ab88185610a57565b9350610ac8818560208601610a68565b610ad181610a92565b840191505092915050565b60006020820190508181036000830152610af68184610aa3565b905092915050565b600073ffffffffffffffffffffffffffffffffffffffff82169050919050565b6000610b2982610afe565b9050919050565b610b3981610b1e565b82525050565b6000602082019050610b546000830184610b30565b92915050565b600080fd5b610b68816109e2565b8114610b7357600080fd5b50565b600081359050610b8581610b5f565b92915050565b600060208284031215610ba157610ba0610b5a565b5b6000610baf84828501610b76565b91505092915050565b600081905092915050565b50565b6000610bd3600083610bb8565b9150610bde82610bc3565b600082019050919050565b6000610bf482610bc6565b9150819050919050565b7f4e487b7100000000000000000000000000000000000000000000000000000000600052602260045260246000fd5b60006002820490506001821680610c4557607f821691505b602082108103610c5857610c57610bfe565b5b50919050565b6000604082019050610c736000830185610b30565b610c8060208301846109ec565b9392505050565b7f4e487b7100000000000000000000000000000000000000000000000000000000600052601160045260246000fd5b6000610cc1826109e2565b9150610ccc836109e2565b9250828201905080821115610ce457610ce3610c87565b5b9291505056fea26469706673582212207b6f38d510ee85c74f2772d9357fd52c448a3eea9c6929b77889f5df9b3b81d564736f6c634300081c0033",
  "linkReferences": {},
  "deployedLinkReferences": {}
}